U 100200000YRHAJ2648060001    13N0000000000000110000000000000000000000420000000000001YHA 001YHA 04019908975001501NN8296DODGE       3B7HF13Z8TG1135044D 000013                                               6501 LYNCH ROAD                     DETROIT            MI48234C                             CHRYSLER CORPORATION                                                    EK000000                                    092198                                                                                                                                      NNYEXEMPT                                00000000
U 100200000YRHAJ2648060001    13N0000000000000110000000000000000000000510000000000TTT125 TTT125 02289906975001403NN8299CHRYSLER    TEST1111111111111PU 000018                                               6501 LYNCH ROAD                     DETROIT            MI48234C                             CHRYSLER CORPORATION                                                    EK000000                                    092198                                                                                                                                      NNYEXEMPT                                00000000
U 100200000YRHAJ2648060002    13N0000000000000110000000000000000000000420000000000001NAC 001NAC 04019908975001201NN8296DODGE       3B7HF13Z5TG1135084D 000013                                               6501 LYNCH ROAD                     DETROIT            MI48234C                             CHRYSLER CORPORATION                                                    EK000000                                    092198                                                                                                                                      NNYEXEMPT                                00000000
U 100200000YRPAJ2648060003    13N0000000000000110000000000000000000000000000000000              04019908       01NN8296DODGE       3B7HF13Z7TG1144824D 000013                                               6501 LYNCH ROAD                     DETROIT            MI48234C                             CHRYSLER CORPORATION                                                    EK000000                                    092198                                                                                                                                      NNYEXEMPT                                00000000